{
  "_format": "hh-sol-artifact-1",
  "contractName": "ProfileRegistry",
  "sourceName": "contracts/ProfileRegistry.sol",
  "abi": [
    {
      "anonymous": false,
      "inputs": [
        {
          "indexed": true,
          "internalType": "address",
          "name": "user",
          "type": "address"
        },
        {
          "indexed": false,
          "internalType": "string",
          "name": "handle",
          "type": "string"
        }
      ],
      "name": "ProfileCreated",
      "type": "event"
    },
    {
      "inputs": [
        {
          "internalType": "string",
          "name": "handle",
          "type": "string"
        }
      ],
      "name": "createProfile",
      "outputs": [],
      "stateMutability": "nonpayable",
      "type": "function"
    },
    {
      "inputs": [
        {
          "internalType": "address",
          "name": "",
          "type": "address"
        }
      ],
      "name": "handleOf",
      "outputs": [
        {
          "internalType": "string",
          "name": "",
          "type": "string"
        }
      ],
      "stateMutability": "view",
      "type": "function"
    },
    {
      "inputs": [
        {
          "internalType": "address",
          "name": "user",
          "type": "address"
        }
      ],
      "name": "hasProfile",
      "outputs": [
        {
          "internalType": "bool",
          "name": "",
          "type": "bool"
        }
      ],
      "stateMutability": "view",
      "type": "function"
    }
  ],
  "bytecode": "0x6080604052348015600f57600080fd5b506104e38061001f6000396000f3fe608060405234801561001057600080fd5b50600436106100415760003560e01c8063334c3f0e14610046578063a787c80b1461005b578063c50a151414610083575b600080fd5b61005961005436600461022d565b6100a3565b005b61006e6100693660046102a1565b610163565b60405190151581526020015b60405180910390f35b6100966100913660046102a1565b610193565b60405161007a91906102d1565b33600090815260208190526040902080546100bd9061031f565b1590506101015760405162461bcd60e51b815260206004820152600e60248201526d416c72656164792065786973747360901b604482015260640160405180910390fd5b33600090815260208190526040902061011b8284836103be565b50336001600160a01b03167fbafddecbd1dec1c1afb76d693f1de16901f521bdf29a02438e3e6806c0b8d948838360405161015792919061047e565b60405180910390a25050565b6001600160a01b038116600090815260208190526040812080548291906101899061031f565b9050119050919050565b600060208190529081526040902080546101ac9061031f565b80601f01602080910402602001604051908101604052809291908181526020018280546101d89061031f565b80156102255780601f106101fa57610100808354040283529160200191610225565b820191906000526020600020905b81548152906001019060200180831161020857829003601f168201915b505050505081565b6000806020838503121561024057600080fd5b823567ffffffffffffffff81111561025757600080fd5b8301601f8101851361026857600080fd5b803567ffffffffffffffff81111561027f57600080fd5b85602082840101111561029157600080fd5b6020919091019590945092505050565b6000602082840312156102b357600080fd5b81356001600160a01b03811681146102ca57600080fd5b9392505050565b602081526000825180602084015260005b818110156102ff57602081860181015160408684010152016102e2565b506000604082850101526040601f19601f83011684010191505092915050565b600181811c9082168061033357607f821691505b60208210810361035357634e487b7160e01b600052602260045260246000fd5b50919050565b634e487b7160e01b600052604160045260246000fd5b601f8211156103b957806000526020600020601f840160051c810160208510156103965750805b601f840160051c820191505b818110156103b657600081556001016103a2565b50505b505050565b67ffffffffffffffff8311156103d6576103d6610359565b6103ea836103e4835461031f565b8361036f565b6000601f84116001811461041e57600085156104065750838201355b600019600387901b1c1916600186901b1783556103b6565b600083815260209020601f19861690835b8281101561044f578685013582556020948501946001909201910161042f565b508682101561046c5760001960f88860031b161c19848701351681555b505060018560011b0183555050505050565b60208152816020820152818360408301376000818301604090810191909152601f909201601f1916010191905056fea2646970667358221220bfe4861988cf4250f6901c360e89e9c0d9107749aee2b5b444c698737c7703f064736f6c634300081c0033",
  "linkReferences": {},
  "deployedLinkReferences": {}
}